:02000004003DBD
:20800000761BFFF0E20000BDE63006002942561676256F00761BFFF0E20000BDE630060009
:208010002942561676256F00761BFFF0E20000BDE63006002942561676256F00761BFFF0D3
:20802000E20000BDE63006002942561676256F00761BFFF0E20000BDE63006002942561692
:2080300076256F00761BFFF0E20000BDE63006002942561676256F00761BFFF0E20000BDEB
:20804000E63006002942561676256F00761BFFF0E20000BDE63006002942561676256F0007
:20805000761BFFF0E20000BDE63006002942561676256F00761BFFF0E20000BDE6300600B9
:208060002942561676256F00761BFFF0E20000BDE63006002942561676256F00761BFFF083
:20807000E20000BDE63006002942561676256F00761BFFF0E20000BDE63006002942561642
:2080800076256F00761BFFF0E20000BDE63006002942561676256F00761BFFF0E20000BD9B
:20809000E63006002942561676256F00761BFFF0E20000BDE63006002942561676256F00B7
:2080A000761BFFF0E20000BDE63006002942561676256F00761BFFF0E20000BDE630060069
:2080B0002942561676256F00761BFFF0E20000BDE63006002942561676256F00761BFFF033
:2080C000E20000BDE63006002942561676256F00761BFFF0E20000BDE630060029425616F2
:2080D00076256F00761BFFF0E20000BDE63006002942561676256F00761BFFF0E20000BD4B
:2080E000E63006002942561676256F00761BFFF0E20000BDE63006002942561676256F0067
:2080F000761BFFF0E20000BDE63006002942561676256F00761BFFF0E20000BDE630060019
:208100002942561676256F00761BFFF0E20000BDE63006002942561676256F00761BFFF0E2
:20811000E20000BDE63006002942561676256F00761BFFF0E20000BDE630060029425616A1
:2081200076256F00761BFFF0E20000BDE63006002942561676256F00761BFFF0E20000BDFA
:20813000E63006002942561676256F00761BFFF0E20000BDE63006002942561676256F0016
:20814000761BFFF0E20000BDE63006002942561676256F00761BFFF0E20000BDE6300600C8
:208150002942561676256F00761BFFF0E20000BDE63006002942561676256F00761BFFF092
:20816000E20000BDE63006002942561676256F00761BFFF0E20000BDE63006002942561651
:2081700076256F00761BFFF0E20000BDE63006002942561676256F00761BFFF0E20000BDAA
:20818000E63006002942561676256F00761BFFF0E20000BDE63006002942561676256F00C6
:20819000761BFFF0E20000BDE63006002942561676256F00761BFFF0E20000BDE630060078
:2081A0002942561676256F00761BFFF0E20000BDE63006002942561676256F00761BFFF042
:2081B000E20000BDE63006002942561676256F00761BFFF0E20000BDE63006002942561601
:2081C00076256F00761BFFF0E20000BDE63006002942561676256F00761BFFF0E20000BD5A
:2081D000E63006002942561676256F00761BFFF0E20000BDE63006002942561676256F0076
:2081E000761BFFF0E20000BDE63006002942561676256F00761BFFF0E20000BDE630060028
:2081F0002942561676256F00761BFFF0E20000BDE63006002942561676256F00761BFFF0F2
:20820000E20000BDE63006002942561676256F00761BFFF0E20000BDE630060029425616B0
:2082100076256F00761BFFF0E20000BDE63006002942561676256F00761BFFF0E20000BD09
:20822000E63006002942561676256F00761BFFF0E20000BDE63006002942561676256F0025
:20823000761BFFF0E20000BDE63006002942561676256F00761BFFF0E20000BDE6300600D7
:208240002942561676256F00761BFFF0E20000BDE63006002942561676256F00761BFFF0A1
:20825000E20000BDE63006002942561676256F00761BFFF0E20000BDE63006002942561660
:2082600076256F00761BFFF0E20000BDE63006002942561676256F00761BFFF0E20000BDB9
:20827000E63006002942561676256F00761BFFF0E20000BDE63006002942561676256F00D5
:20828000761BFFF0E20000BDE63006002942561676256F00761BFFF0E20000BDE630060087
:208290002942561676256F00761BFFF0E20000BDE63006002942561676256F00761BFFF051
:2082A000E20000BDE63006002942561676256F00761BFFF0E20000BDE63006002942561610
:2082B00076256F00761BFFF0E20000BDE63006002942561676256F00761BFFF0E20000BD69
:2082C000E63006002942561676256F00761BFFF0E20000BDE63006002942561676256F0085
:2082D000761BFFF0E20000BDE63006002942561676256F00761BFFF0E20000BDE630060037
:2082E0002942561676256F00761BFFF0E20000BDE63006002942561676256F00761BFFF001
:2082F000E20000BDE63006002942561676256F00761BFFF0E20000BDE630060029425616C0
:2083000076256F00761BFFF0E20000BDE63006002942561676256F00761BFFF0E20000BD18
:20831000E63006002942561676256F00761BFFF0E20000BDE63006002942561676256F0034
:20832000761BFFF0E20000BDE63006002942561676256F00761BFFF0E20000BDE6300600E6
:208330002942561676256F00761BFFF0E20000BDE63006002942561676256F00761BFFF0B0
:20834000E20000BDE63006002942561676256F00761BFFF0E20000BDE6300600294256166F
:2083500076256F00761BFFF0E20000BDE63006002942561676256F00761BFFF0E20000BDC8
:20836000E63006002942561676256F00761BFFF0E20000BDE63006002942561676256F00E4
:20837000761BFFF0E20000BDE63006002942561676256F00761BFFF0E20000BDE630060096
:2083800029425616E28000BEFFF176177602761BFFF0E20000BDE630060029425616762544
:208390006F00761BFFF0E20000BDE63006002942561676256F007622761F01C01A1C000816
:2083A00076FD7C80FF693E67761A7622761F01C41A0000401A0000201A0000801A00400037
:2083B0001800FFF7761A8F00464EFF69A8A97640834D7622761F01C41A010001761A8F0080
:2083C000464EFF69A8A97640834D00067622761F01BECC36FFCF50209636CC36FCFF1AA90C
:2083D00002009636CC36CFFF1AA920009636CC37FFCF50209637CC37FCFF1AA902009637A2
:2083E000CC37CFFF1AA920009637761AFF690006FE027622761F01C41800FFF71A000002E2
:2083F0009A0DFF69767D840F761F01C5CC01FE0050509601767D84849641761F01C59A5064
:20840000CD01FE009E4118A901FFCAA89601761F01C41800FFFD761AFF69FE820006FE02FB
:208410009641761F01C4900FCD20FC3FFF85CAA896209241CD21FC3F900FFF85CAA8962160
:208420009241900FCD22FC3FFF85CAA896229241900FFF85CD23FC3FCAA896239241900F34
:20843000FF85CD24FC3FCAA896249241900FFF85CD25FC3FCAA896259241900FFF85CD2617
:20844000FC3FCAA896269241900FFF85CD27FC3FCAA896279241900FFF85CD28FC3FCAA8C7
:2084500096289241900FFF85CD29FC3FCAA896299241900FFF85CD2AFC3FCAA8962A9241C9
:20846000900FFF85CD2BFC3FCAA8962B9241900FFF85CD2CFC3FCAA8962C9241900FFF851F
:20847000CD2DFC3FCAA8962D9241900FFF85CD2EFC3FCAA8962E9241900FFF85CD2FFC3FF3
:20848000CAA8962FFE820006FE062B432844010002001E42284503E756BF0646761F01C4CC
:20849000CD20FFC09246903FCAA896209246CD21FFC0903FCAA896219246903FCD22FFC07F
:2084A000CAA896229246903FCD23FFC0CAA896239246903FCD24FFC0CAA896249246903FE7
:2084B000CD25FFC0CAA896259246903FCD26FFC0CAA896269246903FCD27FFC0CAA89627BE
:2084C0009246903FCD28FFC0CAA896289246903FCD29FFC0CAA896299246903FCD2AFFC027
:2084D000CAA8962A9246903FCD2BFFC0CAA8962B9246903FCD2CFFC0CAA8962C9246903F8F
:2084E000CD2DFFC0CAA8962D9246903FCD2EFFC0CAA8962E9246903FCD2FFFC0CAA8962F5E
:2084F0001A0800201A0820001808FFBF1808BFFF1A000004CC08FFE050069608CC08E0FFB4
:208500001AA90E009608CC14FFFC50029614CC14FFF350089614CC14FFCF50209614CC1499
:20851000FF3F50809614CC14FCFF1AA902009614CC14F3FF1AA908009614CC14CFFF1AA991
:2085200020009614CC143FFF1AA980009614CC15FFFC50019615CC15FFF350049615CC15DB
:20853000FFCF50109615CC15FF3F50409615CC15FCFF1AA901009615CC15F3FF1AA9040013
:208540009615CC15CFFF1AA910009615CC153FFF1AA9400096158F00464EA8A97640834D7C
:20855000761F01C456BFFF1A924454436958761F01C440046CFD1A050001761F002C0E005F
:2085600007421E420E0107421E420E0207421E420E0307421E420E0407421E420E05074210
:208570001E420E0607421E42761F01C4CC180200FFC8520161FA761F002C0E0707421E429A
:20858000761F01C441046CFD1A050002761F002C0E0807421E420E0907421E420E0A074211
:208590001E420E0B07421E420E0C07421E420E0D07421E420E0E07421E42761F01C4CC181F
:2085A0000002FFC0520161FA761F002C0E0F07421E42084300109244544366AA761F01C493
:2085B0001808FFDF1808DFFF921860FF1A0500011A0500021A0700011A070002CC10FFE065
:2085C000500196109210901F520160FD1810FFE09210901F60FE8844A3420200F61F5617B8
:2085D00000A63F459245FE860006767D85F97622761F01C01A1C000876FD7C80FF693E67E7
:2085E000761F01C0181CFFF7761AFF69767D870B9A129B02767D8601767D86840006762220
:2085F000761F01C056BF552556BFAA25761AFF6900067622761F01C056BF6829761AFF6918
:208600000006FE0297429641761F01C043116C0676221A110010761A7625CC110180FFC667
:20861000610576221811FE7F761A0E411EA69221901F80A906A60FA7611676221A1100409C
:208620009241CD21FFE0901FCAA89621761AFF69767D85F992119001520160FD76221811B4
:20863000FFBF761A9242520161035202600976229003CD11FE7FFF86CAA89611761A92420C
:20864000520360127622CC11FE7F1AA9010096118F000382FF69A8A97640834D761F01C04D
:208650001A110180761AFE82FF690006FE047C43974296417622761F00224E016C03180149
:20866000BFFF761F01C01A3000049003CD30FFFCCAA896309242900FCD32FFF0CAA896323A
:20867000FF69767D85F992349001520160FD761F00229243CD01BFFF9001FF8DCAA89601CC
:20868000761AFF69FE8400067622761F01C056BF021BCC10FFFC500296101A1D00011A1DFC
:2086900000021A1D00041A1D00081A1D00101A1D00201A1D00401A1D00801A1C00011A1C15
:2086A00000041A1D40001A1D80001A1D01001A1D02001A1D04001A1901001A1902001A1940
:2086B00004001A1908001A1C00081A2000011A2000021A2000041A2001001A2002001A20C7
:2086C00004001A2008001A2040001A2080001A1C00101A1C01001A1C02001A1C04001A1CFB
:2086D00008001A1C10001A1C40001A1C0004761AFF690006FE027622761F002B2820FFFFF0
:2086E0002821FFFF2822FFFF2823FFFF2824FFFF2825FFFF2826FFFF2827FFFF761A761F4F
:2086F000FDFF9238964192399641923A9641923B9641923C9641923D9641923E9641923F21
:208700009641761F002B402F6D039A016F029A00FE82FF6900067622761F01C01812FEFF3A
:208710001812FFFE1A1220001A1240001A120400761AFF6900067622761F01C01812FBFF2A
:208720001A1200021A1220001A1240001A1200011812FFFB1812FEFF761AFF690006762245
:20873000761F01C01812BFFF8F00464EFF69A8A97640834D761F01C01A1220001812FFFDC1
:208740001A1200011812FFFB1A1204001812FEFF761AFF6900067622761F01C01A1000401B
:208750001A1240001812DFFF1812FFFD1A1200011812FFFB1A1204001812FEFF761AFF69CF
:208760000006FE0A761FF64A8A1EF6052B848F00E040F65F2B84E590761F0381E20300009E
:20877000E2030002E2030004E2030006E2030008E203000AE203000CE203000EE203001079
:20878000E2030012E2030014E2030016E2030018E203001AE203001CE203001EE2030020E9
:20879000E2030022E2030024E2030026E2030028E203002AE203002CE203002EE203003059
:2087A000E2030032E2030034E2030036E2030038E203003AE203003CE203003E761F0382D4
:2087B000E2030000E2030002E2030004E2030006E20300088F00E008F6172B84761F0380D1
:2087C000E2030008E203000AE203000CE203000EE2030012E2030014E2030016E2030018F1
:2087D00092006007767D839B761F038056BF0100767D8902761F01A0CC00C0001AA92032FC
:2087E000960028050465060291001E022B04CC07FFA0500296072B092B0A56BF900B280CB7
:2087F0000108180DFF3F180EFFF0CC0F7FC0500B960F2B102B11921990F01AA91A0196199F
:20880000CC1ACCFC1AA91101961A181EF80076222B12CC14F0001AA90FFF96141815FF812A
:208810001831FCF01832FCF09A001AA91010933096301813F000CC33FFC0501096332B3575
:208820002B371834FFFECC20FF5F50209620761A761F01A1CC00C0001AA9203296002805F2
:208830000465060291001E022B04CC07FFA0500296072B092B0A56BF900B280C0108180DFB
:20884000FF3F180EFFF0CC0F7FC0500B960F2B102B11921990F01AA912019619CC1ACCFCD6
:208850001AA91101961A181EF80076222B12CC14F0001AA90FFF96141815FF811831FCF053
:208860001832FCF09A001AA91010933096301813F000CC33FFC0501096332B352B371834AC
:20887000FFFECC20FF5F50209620761A761F038092006008FF69767D839B761F038056BF33
:208880000100FF69767D892F761F038092006007767D839B761F038056BF0100767D88D821
:20889000B600BE000200D400D500C342C2441E46284710881901284880002B492B4A767D4D
:2088A0008C467622761F01BE061818A9FFCF1E18061A51041E1A761A761F0383062A761FFA
:2088B00003801E12761F0383062C761F03801E16761F03849203761F0380961E761F0383C4
:2088C0000610761F03801E0C56BF021C761F03830612761F03801E0E56BF021D761F038347
:2088D0000628761F03801E10FF69FE8A000600067622761F01C41801FFFE1801FFFB1801E4
:2088E000FFFD1812FFFBCC24FC3F1AA902C09624CC2407FF1AA908009624CC24FFC050066E
:2088F00096241814FCFF761F01C51801FE00761F01C41800FFF71A0000041810FFE0761AF8
:20890000FF6900067622761F01C41801FFFE1801FFFB1801FFFD1812FFFE1820FC3FCC2033
:2089100007FF1AA928009620CC20FFC0500696201A0800201808FFE01A0800401814FFFC1F
:20892000761F01C51801FE00761F01C41800FFF71A0000041810FFE0761AFF6900067622A2
:20893000761F01C41801FFFE1801FFFB1801FFFD1812FFFDCC22FC3F50C09622CC2207FF84
:208940001AA908009622CC22FFC0500696221814FFCF761F01C51801FE00761F01C41800FB
:20895000FFF71A0000041810FFE0761AFF6900068F000C00761F0382A8200200761F0030AA
:2089600019011E022B062B071A0400101A0400208F000C08761F0382A8288F000C10A830DE
:20897000761F0030020019011E0A761F0030020019011E12761F00302B0E2B0F761F0030D0
:208980002B162B17761F00301A0C0010761F00301A140010761F00301A0C0020761F003086
:208990001A1400200006FE08E2030146E2030044A84206441EE48A4206461EF4E2AF0044E3
:2089A000E2AF0146E70000087700E68800007700E20300488A428AC4064819011ED48A4227
:2089B0008AC42BF48A428AC42BFC8A428AC41AE400108A428AC41AE400208A428AC418E483
:2089C000FBFF8A428AC418E4F7FF8A428AC41AE440008A4202001ED4FE880006761F0384D1
:2089D00092050A055200610556BF01040B056F0A767D8B527640801E767D8B5A761F03846E
:2089E0000B050006FE042842B71728413751E80215A0E2030044761F03842B062B07767DFC
:2089F0008CA5767D8C09767D8E49761FF64A8A1E02001EC4767D8761767D8E2EE2AF004226
:208A0000E2AF0144767D8B2D761FF64A8A1EBE0006C46002BE01761F03847E07767D8B523E
:208A1000767D8DEE767D8E26761F038492076111761FF64A8A1EB600BE0006C46002BE012E
:208A200092A66002B601761F03847F06920760F1767D88D7767D8E2E9A00FE840006FE0237
:208A3000BFA60F1228AC001706A656109B0090FF197F1EA702170FA7620702800FA7604705
:208A4000E71000006F4406A764252DA728A9FFFF9B7FA3A656108AA9CEABCFAAFF58A8ABFB
:208A50006136E8038A49E80F9651E71000407700E5A0AD14652506A663069A009B80561025
:208A6000560100A6A9A9FF55FF5A06A6CEABCFAA6F16E8038A49E80F9651E710004077008D
:208A7000E5A0AD14650D06A6630918A87FFFFF5861079A0028A8BF806F0202001EA606A68D
:208A8000BDA90F127700770077007700FE82000628AD0002FF69561F5616561AE610020065
:208A90002940761F00002902761B767D8E4A52006142762228A992A228A8003D0901611B1C
:208AA00076FD92A229046F0F9B0024A9DF016C04290424A8DF011EA6F7A1248606A781A1FE
:208AB00009011EA724A96303FF5C3B0459A9DF010009FFEC28A9FFFF28A8FFFF0901610527
:208AC0008F3FFFFF767D8D93761A767D8E4C28A9FFFF28A8FFFF0901610E76FFFFFF6F065C
:208AD000DF01C3BD1EA73E67C5BE24A9DF0124A8FF5860F7767D8E14767D8D1EE20304BD39
:208AE000E6950003E695000CE69D0723E6930022E585E00880BDE00689BDE8D00000E8507E
:208AF000A009E7000012E68E0009E700011076FFDA9AE8D0000076BFDA98BFA90F168CA945
:208B0000000658ABE70000128F7FDA96E7000098E2AF0197E300599676FFDA92E3165C9590
:208B1000E2AE01D7E70000C37700E31702BEE6AE000BE6C10010E6A30000E6AA0000E6A409
:208B2000001BE312DABEE2AE04BEE6CB000BE71000C07700E6A400000006FE04E203014495
:208B3000E2030042E8024BA0E2AF01428F00E0A0E8092000E3020844767D8993761F003030
:208B40001804FFEF7622761F00358F3D8BC5A80C761A761F00331A22004076230001FF6903
:208B5000FE8400063B10761F00331A2200402910FF690006FE022B413B109A00761F00332E
:208B600046226C029A0196411822FFBFF6057700762FFFFE56BF01212910FF69FE82000643
:208B7000FE02964192416104767D8B526F03767D8B5AFE820006E20304BDE6950003E80129
:208B8000FC04E69D0723E6930022E585E00880BDE70000D1E8D00000E850A009E7000012B4
:208B9000E68E0009E700011076FFDA9AE8D0000076BFDA98BFA90F168CA9000658ABE70056
:208BA00000128F7FDA96E7000098E2AF0197E300599676FFDA92E3165C95E2AE01D7E70091
:208BB00000C37700E71000E0E593E6AE0000E6AA0000E2AF02BEE2AE04BEE6CB000BE710A2
:208BC00000C07700E6A400000006761BFFF00005ABBDA8BDA0BDC2BDC3BDE20000BDE2039C
:208BD00000BDE20301BDE20302BDE20303BDE6300600FE02FF6929425616761F0033922205
:208BE00096411822FFBFF6057700762FFFFE56BF0121762300012910FF69767D89CE3B108B
:208BF0009241761F00339622FE82E2AF03BEE2AF02BEE2AF01BEE2AF00BEE28000BEC5BEAD
:208C0000C4BE83BE8ABE87BE00033B30FFF176177602767D85F97622761F01C01A1C000804
:208C100076FD7C80FF693E67761F01C0181CFFF7761AFF69767D870B9A099B03767D860110
:208C2000767D86847622761F01C02B1B761A3B1076260000762F0000FF69767D8D45767DC7
:208C30008D6D767D8958767D8DD87622761F01C0181CFFFB761A7622761F01BE02001E0244
:208C40001E041E121E14761AFF690006FE047D447C431E427622761F01BE181DFFBF181D9C
:208C5000FF7F181DFEFFCC18CFFF1AA920009618CC183FFF1AA980009618CC19FFFC5002CC
:208C60009619761A0648761F01AD1E0206421E04064A1E109243961392449614924D961594
:208C7000924E9617924F9616CC153FFF1AA980009615064C1E0692509618FF69FE840006C7
:208C8000FE02E2030042767D8CB4FE820006FE02E2030042767D8CE8FE820006FE02E203FB
:208C90000042767D8DB7FE820006FE02E2030042767D8B7BFE820006FE04E2030144E2030E
:208CA0000042767D8ADEFE8400068F7D8E4D8F3D919EA0A9564100A4A8A98F008000767DD6
:208CB0008DF7764083320006E8021511E80FCC19E7000040E801E24AE8087EDAE6880001D0
:208CC00076BFD59076FFD690BFA90F1618A901FFFF8058A9E6F10000E801F153E80D555BA8
:208CD000E3041196E302D897E86FC000E70000D37700E71000C07700E30099967700E7209C
:208CE000005B7700E30698977700E71000C00006E8021511E80FCC19E7000040E801E24A2E
:208CF000E8087EDAE688000176BFD69076FFD590BFA90F1618A901FFFF8058A9E6F1000093
:208D0000E801F153E80D555BE3041196E302D897E86FC000E70000D37700E72000C0770019
:208D1000E30099967700E71000CB7700E30698977700E71000C0000677006F00B2BD761F4B
:208D2000038259A99238610D28ABFFFF28AAFFFF28A9FFFF28A8FFFF0FAB6103767FFFFF25
:208D3000761F0382C53E3E67761F0382063C61041EA792A13E67761F0382063A61031EA780
:208D40003E67767D8D1C8BBE00063B10761F00331820FFFE2B222B242B262B282B2A2B2C4F
:208D50002B2E2B302B322B342B362B382B232B252B272B292B2B2B2D2B2F2B312B332B3569
:208D60002B372B39FF690006761F00331A2000012821FFFF2910FF690006FE068F3D919ECF
:208D7000A8428F000D00A844020607421E42020607441E4476222B459245527D630D834426
:208D80008A42A0A9C4840902A8421E44C2C50A459245527D64F5761A761F00331A200001B7
:208D9000FF69FE860006B2BDAABDA2BDFE0882A4D1005ACB6F155CAD2901560303A107A31C
:208DA000DC8809025CA483A90208767D8DF7064261068A448346767D8DF75ACBD90192A2A7
:208DB00054A166EAFE8882BE86BE8BBE0006E6920001E84FC002E700004B7700E700009B68
:208DC0007700E8CFF01B7700E70000C97700E700008B7700E70000CB7700E8CFF01BE5A063
:208DD000E70000C97700E6C10001E700004000067622761F01BECC06FFFC50019606CC060F
:208DE000FFF350049606CC06FFCF50109606CC06FF3F50409606761AFF6900067622761F8E
:208DF00001C01A1C0004761AFF69000600065200A8ABC5A4610788A9DE815C857C87000E6C
:208E0000FFFE88A90FA6610F5300610D9DFF5CA876BFFFFE92859687000EFFFE92859687F9
:208E1000000CFFF8A9A40006020028ABFFFF28AAFFFF19010FAB60049A00D4006F05A9A4E2
:208E200092C4A9A4DC02767D89E20006761F0384920B60047608293092BE000676083B301A
:208E300092BE761F0384960B180B00010006761F0384A8080006761F0382A83E000600060D
:1A8E4000561F7622B9C028290068761A007D8A88000600069A010006000607
:208E4D000202761FF64A071E8AA90ACC8A1E92DC520169022BDC0202071E8AA90AD48A1E41
:208E5D0092E4520969022BE40202071E8AA90ADC8A1E92EC524F69022BEC0006FE08761F7E
:208E6D00F64A8A1E92DCFFE000A43B01761F03808F00E0125603011A560100A4761F0381AF
:208E7D0006C41E04761F03808F00E0165603011B560100A4761F038106C41E06E2AF00063E
:208E8D00E2AF0104E72000087700E2030008761F0383E2AF000C761F0381E2AF0108E7006A
:208E9D0000087700E203000A761F0380921E761F0382961D610B761F0380921C6207761F82
:208EAD0003830610761F03801E0C761F0380060C761F03811E0CE2AF000AE2AF010CE7102A
:208EBD0000407700E203000E060E1E44761F038306181E46061C1E48E2AF0144E2AF0048A1
:208ECD00E6940001AD146505761F03811E106F10E2AF0046E6940001AD1463060646761FBC
:208EDD0003811E106F050644761F03811E10761F0383E2AF0030761F0381E2AF0110E70040
:208EED0000087700E203001206121E44761F038306321E4606041E48E2AF0144E2AF00489F
:208EFD00E6940001AD146505761F03811E146F10E2AF0046E6940001AD1463060646761F88
:208F0D0003811E146F050644761F03811E14761FF64A8A1E92EC6009761F002C9200761F39
:208F1D00038296149214961792DCFFE00103761F03829217761F03849E00761F038296181C
:208F2D00E2C80018761F0381E2030016761F0383E2AF0002761F0381E2AF0116E7000008F0
:208F3D007700E2030018E2AF0114E72000087700E203001A761F0383E2AF000A761F0381A6
:208F4D00E2AF011AE70000087700E203001C761F0382921D610B761F0380921D6207761FF7
:208F5D0003830612761F03801E0E761F0380060E761F03811E1EE2AF001CE2AF011EE7103D
:208F6D0000407700E203002006201E44761F0383061A1E46061E1E48E2AF0144E2AF0048C8
:208F7D00E6940001AD146505761F03811E226F10E2AF0046E6940001AD1463060646761FF9
:208F8D0003811E226F050644761F03811E221E44761F038306381E4606361E48E2AF00484F
:208F9D00E2AF0144E6940001AD146505761F03811E246F10E2AF0046E6940001AD146306E2
:208FAD000646761F03811E246F050644761F03811E24E2AF0024761F0383E2AF0120E7106B
:208FBD000040761F0381E2030000761F0383E2AF0022761F0381E2AF0100E7000008770077
:208FCD00E2030026761F0382E2C4011D7700E7000008761F0381E2030028761F0383E2AF63
:208FDD000000761F0381E2AF0128E70000087700E203002A767D8A2FE68C0000761F0382F4
:208FED00E21300199219761F01A09609761F0381E2AF0026761F0383E2AF013AE720000810
:208FFD00761F0381E203002C761F0382E2C4011D7700E7000008761F0381E203002E761F25
:20900D000383E2AF0000761F0381E2AF012EE70000087700E2030030767D8A2FE68C0000BA
:20901D00761F0382E213001A921A761F01A19609761FF64A8A1E92EC603B761F002C92029D
:20902D00761F038296159215961B761F03842D01761F0382121B1E0CE288000C761F0383BA
:20903D00E84D8001E2AF0324E72000C8761F0381E2030002761F002C9204761F03829616B9
:20904D009216961C761F03842D02761F0382121C1E0A761F0383BE00060E761F03820F0ACE
:20905D006202BE017E1E761F038106021E3292E46030761F01AD0600761F03821E0E761F99
:20906D0003800610761F03821E10060E03101E12E2880012761F0381E2030034761F0383E2
:20907D00E2AF003C761F0381E2AF0134E70000087700E2030036761F0383E2AF003E761F27
:20908D000381E2AF0136E70000087700E203003892DC6070761F0381E2AF0020E2AF012238
:20909D00E72000087700E203003A761F0383E2AF0014761F0381E2AF013AE7000008770003
:2090AD00E203003C761F0383E2AF0006761F0381E2AF011AE70000087700E203003EE2AFF1
:2090BD00013EE2AF003CE7100040761F0382E2030000761F0381E2AF0110E2AF000EE720F0
:2090CD000008761F0382E2030002761F0383E2AF0016761F0382E2AF0102E70000087700A4
:2090DD00E2030004761F0383E2AF0008761F0381E2AF0108E7000008761F0382E20300062F
:2090ED00E2AF0106E2AF0004E71000407700E2030008761F0383E2AF0026E5A0AD1461061C
:2090FD00761F01BF1A0B00046F05761F01BF1A0D000492EC601F761F0380921ABE00600200
:20910D00BE0106A6761F0381C4328F00E012FF30560100A4C2C4761F03809B00921A5200E6
:20911D0060029B01971A761F0382921E761F0380961E761FF64A8A1E92E4601F761F038063
:20912D00921BBE006002BE0106A6761F0381C4388F00E016FF30560100A4C2C4761F038088
:20913D009B00921B520060029B01971B761F0382060E761F03801E10761FF64A8A1E92DC69
:20914D00602E761F0383E2AF002E761F0382E2AF0108761F0380E7000009E2AF030CE71047
:20915D0000C87700E203000C761F0382921D761F0380961C761F0383E2AF0034761F038235
:20916D00E2AF0100761F0380E7000009E2AF020EE71000887700E203000E961D76408000D5
:20917D00FE8800067622761F002A1A000001CC06F0FF1AA903009606CC06FFF05003960601
:20918D00CC07FFE0500596071A0401FF1A0501FF761AF6077700FF690006190156C3FFFF3E
:02919D000006CA
:20919E008387003D8387003D8387003D8387003D8387003D8387003D8387003D8387003D79
:2091AE008387003D8387003D8387003D8387003D8387003D8000003D800A003D8014003DE9
:2091BE00801E003D8028003D8032003D803C003D8046003D8050003D805A003D8064003DA1
:2091CE00806E003D8078003D8082003D808C003D8096003D80A0003D80AA003D80B4003D11
:2091DE0080BE003D80C8003D8391003D80D2003D80DC003D80E6003D80F0003D80FA003DF1
:2091EE008104003D810E003D8118003D8122003D812C003D8136003D8140003D814A003D39
:2091FE008154003D815E003D8168003D8172003D817C003D8186003D8190003D819A003DA9
:20920E0081A4003D81AE003D81B8003D8391003D8391003D8391003D81C2003D81CC003DFF
:20921E0081D6003D81E0003D8391003D81EA003D81F4003D8391003D8391003D81FE003DF5
:20922E008208003D8212003D821C003D8212003D8230003D823A003D8391003D8391003D52
:20923E008244003D824E003D8258003D8262003D826C003D8276003D8391003D8391003DC6
:20924E008280003D828A003D8391003D8391003D8391003D8391003D8391003D8391003D92
:20925E008294003D829E003D82A8003D82B2003D82BC003D82C6003D8391003D8391003DC6
:20926E008391003D8391003D82D0003D82DA003D82E4003D82EE003D82F8003D8302003D4D
:20927E00830C003D8316003D8320003D832A003D8334003D833E003D8348003D8352003D58
:20928E00835C003D8391003D8391003D8391003D8391003D8391003D8366003D8370003DB9
:08929E00E0020000F2CA714970
:2092A200FFBCE0C00000A000448C126F3C03000041202E4F454A9A3D3B3447AE40A93572E9
:2092B2003964000002000000000000000000E0B8441898A3414A9168BE6D00000000916826
:2092C2003E6DCCCD411C00000000CCCD3DCC0000000000003F80000000000000000000008A
:2092D2000000B71737D169EE422C0000C120B71737D1000041200000000000003F8000000A
:2092E200434877503DD60800640040000000FFFFE0B800000001FFFEE0BA0000000000002D
:2092F200FFFEE0BC000000000000FFFFE10400000000FFFFE10500000000FFFEE0BE000061
:209302008E3F003DFFFEE10800008E3F003DFFFFE00000000000FFFFE10A0000000000008A
:02931200000059
:02000004003FBB
:047FF600007D8E403C
:00000001FF
